{
  "_format": "hh-sol-artifact-1",
  "contractName": "Simplestorage",
  "sourceName": "contracts/SimpleStorage.sol",
  "abi": [
    {
      "inputs": [
        {
          "internalType": "string",
          "name": "_storag",
          "type": "string"
        }
      ],
      "stateMutability": "nonpayable",
      "type": "constructor"
    },
    {
      "inputs": [
        {
          "internalType": "string",
          "name": "_name",
          "type": "string"
        },
        {
          "internalType": "uint256",
          "name": "_favoriteNumber",
          "type": "uint256"
        }
      ],
      "name": "add",
      "outputs": [],
      "stateMutability": "nonpayable",
      "type": "function"
    },
    {
      "inputs": [],
      "name": "favoriteNumber",
      "outputs": [
        {
          "internalType": "uint256",
          "name": "",
          "type": "uint256"
        }
      ],
      "stateMutability": "view",
      "type": "function"
    },
    {
      "inputs": [
        {
          "internalType": "uint256",
          "name": "",
          "type": "uint256"
        }
      ],
      "name": "people",
      "outputs": [
        {
          "internalType": "uint256",
          "name": "favoriteNumber",
          "type": "uint256"
        },
        {
          "internalType": "string",
          "name": "name",
          "type": "string"
        }
      ],
      "stateMutability": "view",
      "type": "function"
    },
    {
      "inputs": [
        {
          "internalType": "uint256",
          "name": "_favoriteNumber",
          "type": "uint256"
        }
      ],
      "name": "store",
      "outputs": [],
      "stateMutability": "nonpayable",
      "type": "function"
    },
    {
      "inputs": [],
      "name": "store",
      "outputs": [
        {
          "internalType": "string",
          "name": "",
          "type": "string"
        }
      ],
      "stateMutability": "view",
      "type": "function"
    }
  ],
  "bytecode": "0x60806040523480156200001157600080fd5b5060405162000cf838038062000cf8833981810160405281019062000037919062000278565b6200006760405180606001604052806026815260200162000cd260269139826200008760201b620002d21760201c565b80600190805190602001906200007f92919062000156565b5050620004c5565b620001298282604051602401620000a0929190620002fe565b6040516020818303038152906040527f4b5c4277000000000000000000000000000000000000000000000000000000007bffffffffffffffffffffffffffffffffffffffffffffffffffffffff19166020820180517bffffffffffffffffffffffffffffffffffffffffffffffffffffffff83818316178352505050506200012d60201b60201c565b5050565b60008151905060006a636f6e736f6c652e6c6f679050602083016000808483855afa5050505050565b8280546200016490620003ea565b90600052602060002090601f016020900481019282620001885760008555620001d4565b82601f10620001a357805160ff1916838001178555620001d4565b82800160010185558215620001d4579182015b82811115620001d3578251825591602001919060010190620001b6565b5b509050620001e39190620001e7565b5090565b5b8082111562000202576000816000905550600101620001e8565b5090565b60006200021d620002178462000362565b62000339565b9050828152602081018484840111156200023657600080fd5b62000243848285620003b4565b509392505050565b600082601f8301126200025d57600080fd5b81516200026f84826020860162000206565b91505092915050565b6000602082840312156200028b57600080fd5b600082015167ffffffffffffffff811115620002a657600080fd5b620002b4848285016200024b565b91505092915050565b6000620002ca8262000398565b620002d68185620003a3565b9350620002e8818560208601620003b4565b620002f381620004b4565b840191505092915050565b600060408201905081810360008301526200031a8185620002bd565b90508181036020830152620003308184620002bd565b90509392505050565b60006200034562000358565b905062000353828262000420565b919050565b6000604051905090565b600067ffffffffffffffff82111562000380576200037f62000485565b5b6200038b82620004b4565b9050602081019050919050565b600081519050919050565b600082825260208201905092915050565b60005b83811015620003d4578082015181840152602081019050620003b7565b83811115620003e4576000848401525b50505050565b600060028204905060018216806200040357607f821691505b602082108114156200041a576200041962000456565b5b50919050565b6200042b82620004b4565b810181811067ffffffffffffffff821117156200044d576200044c62000485565b5b80604052505050565b7f4e487b7100000000000000000000000000000000000000000000000000000000600052602260045260246000fd5b7f4e487b7100000000000000000000000000000000000000000000000000000000600052604160045260246000fd5b6000601f19601f8301169050919050565b6107fd80620004d56000396000f3fe608060405234801561001057600080fd5b50600436106100575760003560e01c806336555b851461005c578063471f7cdf146100785780636057361d14610096578063975057e7146100b25780639e7a13ad146100d0575b600080fd5b610076600480360381019061007191906104b7565b610101565b005b610080610174565b60405161008d91906105d5565b60405180910390f35b6100b060048036038101906100ab919061050b565b61017a565b005b6100ba610184565b6040516100c7919061057c565b60405180910390f35b6100ea60048036038101906100e5919061050b565b610216565b6040516100f89291906105f0565b60405180910390f35b60006040518060400160405280838152602001848152509050600281908060018154018082558091505060019003906000526020600020906002020160009091909190915060008201518160000155602082015181600101908051906020019061016c929190610397565b505050505050565b60005481565b8060008190555050565b606060018054610193906106de565b80601f01602080910402602001604051908101604052809291908181526020018280546101bf906106de565b801561020c5780601f106101e15761010080835404028352916020019161020c565b820191906000526020600020905b8154815290600101906020018083116101ef57829003601f168201915b5050505050905090565b6002818154811061022657600080fd5b906000526020600020906002020160009150905080600001549080600101805461024f906106de565b80601f016020809104026020016040519081016040528092919081815260200182805461027b906106de565b80156102c85780601f1061029d576101008083540402835291602001916102c8565b820191906000526020600020905b8154815290600101906020018083116102ab57829003601f168201915b5050505050905082565b61036a82826040516024016102e892919061059e565b6040516020818303038152906040527f4b5c4277000000000000000000000000000000000000000000000000000000007bffffffffffffffffffffffffffffffffffffffffffffffffffffffff19166020820180517bffffffffffffffffffffffffffffffffffffffffffffffffffffffff838183161783525050505061036e565b5050565b60008151905060006a636f6e736f6c652e6c6f679050602083016000808483855afa5050505050565b8280546103a3906106de565b90600052602060002090601f0160209004810192826103c5576000855561040c565b82601f106103de57805160ff191683800117855561040c565b8280016001018555821561040c579182015b8281111561040b5782518255916020019190600101906103f0565b5b509050610419919061041d565b5090565b5b8082111561043657600081600090555060010161041e565b5090565b600061044d61044884610645565b610620565b90508281526020810184848401111561046557600080fd5b61047084828561069c565b509392505050565b600082601f83011261048957600080fd5b813561049984826020860161043a565b91505092915050565b6000813590506104b1816107b0565b92915050565b600080604083850312156104ca57600080fd5b600083013567ffffffffffffffff8111156104e457600080fd5b6104f085828601610478565b9250506020610501858286016104a2565b9150509250929050565b60006020828403121561051d57600080fd5b600061052b848285016104a2565b91505092915050565b600061053f82610676565b6105498185610681565b93506105598185602086016106ab565b6105628161079f565b840191505092915050565b61057681610692565b82525050565b600060208201905081810360008301526105968184610534565b905092915050565b600060408201905081810360008301526105b88185610534565b905081810360208301526105cc8184610534565b90509392505050565b60006020820190506105ea600083018461056d565b92915050565b6000604082019050610605600083018561056d565b81810360208301526106178184610534565b90509392505050565b600061062a61063b565b90506106368282610710565b919050565b6000604051905090565b600067ffffffffffffffff8211156106605761065f610770565b5b6106698261079f565b9050602081019050919050565b600081519050919050565b600082825260208201905092915050565b6000819050919050565b82818337600083830152505050565b60005b838110156106c95780820151818401526020810190506106ae565b838111156106d8576000848401525b50505050565b600060028204905060018216806106f657607f821691505b6020821081141561070a57610709610741565b5b50919050565b6107198261079f565b810181811067ffffffffffffffff8211171561073857610737610770565b5b80604052505050565b7f4e487b7100000000000000000000000000000000000000000000000000000000600052602260045260246000fd5b7f4e487b7100000000000000000000000000000000000000000000000000000000600052604160045260246000fd5b6000601f19601f8301169050919050565b6107b981610692565b81146107c457600080fd5b5056fea26469706673582212206c562083694cff8ed21fb0bcbd1abe3d79577eac1230a2a945db2248037ea8d264736f6c634300080400334465706c6f79696e6720612053696d706c6573746f7261676520776974682073746f7261673a",
  "linkReferences": {},
  "deployedLinkReferences": {}
}