{
  "_format": "hh-sol-artifact-1",
  "contractName": "Simplestorage",
  "sourceName": "contracts/SimpleStorage.sol",
  "abi": [
    {
      "inputs": [
        {
          "internalType": "string",
          "name": "_storag",
          "type": "string"
        }
      ],
      "stateMutability": "nonpayable",
      "type": "constructor"
    },
    {
      "inputs": [
        {
          "internalType": "string",
          "name": "_name",
          "type": "string"
        },
        {
          "internalType": "uint256",
          "name": "_favoriteNumber",
          "type": "uint256"
        }
      ],
      "name": "add",
      "outputs": [],
      "stateMutability": "nonpayable",
      "type": "function"
    },
    {
      "inputs": [],
      "name": "favoriteNumber",
      "outputs": [
        {
          "internalType": "uint256",
          "name": "",
          "type": "uint256"
        }
      ],
      "stateMutability": "view",
      "type": "function"
    },
    {
      "inputs": [
        {
          "internalType": "uint256",
          "name": "",
          "type": "uint256"
        }
      ],
      "name": "people",
      "outputs": [
        {
          "internalType": "uint256",
          "name": "favoriteNumber",
          "type": "uint256"
        },
        {
          "internalType": "string",
          "name": "name",
          "type": "string"
        }
      ],
      "stateMutability": "view",
      "type": "function"
    },
    {
      "inputs": [
        {
          "internalType": "uint256",
          "name": "_favoriteNumber",
          "type": "uint256"
        }
      ],
      "name": "store",
      "outputs": [],
      "stateMutability": "nonpayable",
      "type": "function"
    },
    {
      "inputs": [],
      "name": "store",
      "outputs": [
        {
          "internalType": "string",
          "name": "",
          "type": "string"
        }
      ],
      "stateMutability": "view",
      "type": "function"
    },
    {
      "inputs": [],
      "name": "testVar",
      "outputs": [
        {
          "internalType": "uint256",
          "name": "",
          "type": "uint256"
        }
      ],
      "stateMutability": "view",
      "type": "function"
    }
  ],
  "bytecode": "0x608060405260006002553480156200001657600080fd5b5060405162000d8838038062000d8883398181016040528101906200003c9190620003a8565b6200006c60405180606001604052806026815260200162000d6260269139826200008c60201b620003091760201c565b8060019080519060200190620000849291906200015b565b5050620004f6565b6200012e8282604051602401620000a592919062000456565b6040516020818303038152906040527f4b5c4277000000000000000000000000000000000000000000000000000000007bffffffffffffffffffffffffffffffffffffffffffffffffffffffff19166020820180517bffffffffffffffffffffffffffffffffffffffffffffffffffffffff83818316178352505050506200013260201b60201c565b5050565b60008151905060006a636f6e736f6c652e6c6f679050602083016000808483855afa5050505050565b8280546200016990620004c0565b90600052602060002090601f0160209004810192826200018d5760008555620001d9565b82601f10620001a857805160ff1916838001178555620001d9565b82800160010185558215620001d9579182015b82811115620001d8578251825591602001919060010190620001bb565b5b509050620001e89190620001ec565b5090565b5b8082111562000207576000816000905550600101620001ed565b5090565b6000604051905090565b600080fd5b600080fd5b600080fd5b600080fd5b6000601f19601f8301169050919050565b7f4e487b7100000000000000000000000000000000000000000000000000000000600052604160045260246000fd5b620002748262000229565b810181811067ffffffffffffffff821117156200029657620002956200023a565b5b80604052505050565b6000620002ab6200020b565b9050620002b9828262000269565b919050565b600067ffffffffffffffff821115620002dc57620002db6200023a565b5b620002e78262000229565b9050602081019050919050565b60005b8381101562000314578082015181840152602081019050620002f7565b8381111562000324576000848401525b50505050565b6000620003416200033b84620002be565b6200029f565b90508281526020810184848401111562000360576200035f62000224565b5b6200036d848285620002f4565b509392505050565b600082601f8301126200038d576200038c6200021f565b5b81516200039f8482602086016200032a565b91505092915050565b600060208284031215620003c157620003c062000215565b5b600082015167ffffffffffffffff811115620003e257620003e16200021a565b5b620003f08482850162000375565b91505092915050565b600081519050919050565b600082825260208201905092915050565b60006200042282620003f9565b6200042e818562000404565b935062000440818560208601620002f4565b6200044b8162000229565b840191505092915050565b6000604082019050818103600083015262000472818562000415565b9050818103602083015262000488818462000415565b90509392505050565b7f4e487b7100000000000000000000000000000000000000000000000000000000600052602260045260246000fd5b60006002820490506001821680620004d957607f821691505b60208210811415620004f057620004ef62000491565b5b50919050565b61085c80620005066000396000f3fe608060405234801561001057600080fd5b50600436106100625760003560e01c806336555b8514610067578063471f7cdf146100835780636057361d146100a1578063975057e7146100bd5780639c328fb3146100db5780639e7a13ad146100f9575b600080fd5b610081600480360381019061007c9190610601565b61012a565b005b61008b61019d565b604051610098919061066c565b60405180910390f35b6100bb60048036038101906100b69190610687565b6101a3565b005b6100c56101b5565b6040516100d2919061073c565b60405180910390f35b6100e3610247565b6040516100f0919061066c565b60405180910390f35b610113600480360381019061010e9190610687565b61024d565b60405161012192919061075e565b60405180910390f35b6000604051806040016040528083815260200184815250905060038190806001815401808255809150506001900390600052602060002090600202016000909190919091506000820151816000015560208201518160010190805190602001906101959291906103ce565b505050505050565b60005481565b80600081905550600560028190555050565b6060600180546101c4906107bd565b80601f01602080910402602001604051908101604052809291908181526020018280546101f0906107bd565b801561023d5780601f106102125761010080835404028352916020019161023d565b820191906000526020600020905b81548152906001019060200180831161022057829003601f168201915b5050505050905090565b60025481565b6003818154811061025d57600080fd5b9060005260206000209060020201600091509050806000015490806001018054610286906107bd565b80601f01602080910402602001604051908101604052809291908181526020018280546102b2906107bd565b80156102ff5780601f106102d4576101008083540402835291602001916102ff565b820191906000526020600020905b8154815290600101906020018083116102e257829003601f168201915b5050505050905082565b6103a1828260405160240161031f9291906107ef565b6040516020818303038152906040527f4b5c4277000000000000000000000000000000000000000000000000000000007bffffffffffffffffffffffffffffffffffffffffffffffffffffffff19166020820180517bffffffffffffffffffffffffffffffffffffffffffffffffffffffff83818316178352505050506103a5565b5050565b60008151905060006a636f6e736f6c652e6c6f679050602083016000808483855afa5050505050565b8280546103da906107bd565b90600052602060002090601f0160209004810192826103fc5760008555610443565b82601f1061041557805160ff1916838001178555610443565b82800160010185558215610443579182015b82811115610442578251825591602001919060010190610427565b5b5090506104509190610454565b5090565b5b8082111561046d576000816000905550600101610455565b5090565b6000604051905090565b600080fd5b600080fd5b600080fd5b600080fd5b6000601f19601f8301169050919050565b7f4e487b7100000000000000000000000000000000000000000000000000000000600052604160045260246000fd5b6104d88261048f565b810181811067ffffffffffffffff821117156104f7576104f66104a0565b5b80604052505050565b600061050a610471565b905061051682826104cf565b919050565b600067ffffffffffffffff821115610536576105356104a0565b5b61053f8261048f565b9050602081019050919050565b82818337600083830152505050565b600061056e6105698461051b565b610500565b90508281526020810184848401111561058a5761058961048a565b5b61059584828561054c565b509392505050565b600082601f8301126105b2576105b1610485565b5b81356105c284826020860161055b565b91505092915050565b6000819050919050565b6105de816105cb565b81146105e957600080fd5b50565b6000813590506105fb816105d5565b92915050565b600080604083850312156106185761061761047b565b5b600083013567ffffffffffffffff81111561063657610635610480565b5b6106428582860161059d565b9250506020610653858286016105ec565b9150509250929050565b610666816105cb565b82525050565b6000602082019050610681600083018461065d565b92915050565b60006020828403121561069d5761069c61047b565b5b60006106ab848285016105ec565b91505092915050565b600081519050919050565b600082825260208201905092915050565b60005b838110156106ee5780820151818401526020810190506106d3565b838111156106fd576000848401525b50505050565b600061070e826106b4565b61071881856106bf565b93506107288185602086016106d0565b6107318161048f565b840191505092915050565b600060208201905081810360008301526107568184610703565b905092915050565b6000604082019050610773600083018561065d565b81810360208301526107858184610703565b90509392505050565b7f4e487b7100000000000000000000000000000000000000000000000000000000600052602260045260246000fd5b600060028204905060018216806107d557607f821691505b602082108114156107e9576107e861078e565b5b50919050565b600060408201905081810360008301526108098185610703565b9050818103602083015261081d8184610703565b9050939250505056fea264697066735822122086314afec224bb5fc0bfb5bebd3fe3c66bc9839e26b696ef1c7d8d3b8ba9466d64736f6c634300080900334465706c6f79696e6720612053696d706c6573746f7261676520776974682073746f7261673a",
  "linkReferences": {},
  "deployedLinkReferences": {}
}