{
  "_format": "hh-sol-artifact-1",
  "contractName": "Simplestorage",
  "sourceName": "contracts/SimpleStorage.sol",
  "abi": [
    {
      "inputs": [
        {
          "internalType": "string",
          "name": "_storag",
          "type": "string"
        }
      ],
      "stateMutability": "nonpayable",
      "type": "constructor"
    },
    {
      "inputs": [],
      "name": "store",
      "outputs": [
        {
          "internalType": "string",
          "name": "",
          "type": "string"
        }
      ],
      "stateMutability": "view",
      "type": "function"
    }
  ],
  "bytecode": "0x608060405234801561001057600080fd5b506040516107dc3803806107dc83398181016040528101906100329190610251565b61005e6040518060600160405280602681526020016107b6602691398261007b60201b6100e01760201c565b8060009080519060200190610074929190610146565b5050610479565b61011982826040516024016100919291906102cb565b6040516020818303038152906040527f4b5c4277000000000000000000000000000000000000000000000000000000007bffffffffffffffffffffffffffffffffffffffffffffffffffffffff19166020820180517bffffffffffffffffffffffffffffffffffffffffffffffffffffffff838183161783525050505061011d60201b60201c565b5050565b60008151905060006a636f6e736f6c652e6c6f679050602083016000808483855afa5050505050565b828054610152906103a7565b90600052602060002090601f01602090048101928261017457600085556101bb565b82601f1061018d57805160ff19168380011785556101bb565b828001600101855582156101bb579182015b828111156101ba57825182559160200191906001019061019f565b5b5090506101c891906101cc565b5090565b5b808211156101e55760008160009055506001016101cd565b5090565b60006101fc6101f784610327565b610302565b90508281526020810184848401111561021457600080fd5b61021f848285610374565b509392505050565b600082601f83011261023857600080fd5b81516102488482602086016101e9565b91505092915050565b60006020828403121561026357600080fd5b600082015167ffffffffffffffff81111561027d57600080fd5b61028984828501610227565b91505092915050565b600061029d82610358565b6102a78185610363565b93506102b7818560208601610374565b6102c081610468565b840191505092915050565b600060408201905081810360008301526102e58185610292565b905081810360208301526102f98184610292565b90509392505050565b600061030c61031d565b905061031882826103d9565b919050565b6000604051905090565b600067ffffffffffffffff82111561034257610341610439565b5b61034b82610468565b9050602081019050919050565b600081519050919050565b600082825260208201905092915050565b60005b83811015610392578082015181840152602081019050610377565b838111156103a1576000848401525b50505050565b600060028204905060018216806103bf57607f821691505b602082108114156103d3576103d261040a565b5b50919050565b6103e282610468565b810181811067ffffffffffffffff8211171561040157610400610439565b5b80604052505050565b7f4e487b7100000000000000000000000000000000000000000000000000000000600052602260045260246000fd5b7f4e487b7100000000000000000000000000000000000000000000000000000000600052604160045260246000fd5b6000601f19601f8301169050919050565b61032e806104886000396000f3fe608060405234801561001057600080fd5b506004361061002b5760003560e01c8063975057e714610030575b600080fd5b61003861004e565b60405161004591906101de565b60405180910390f35b60606000805461005d90610286565b80601f016020809104026020016040519081016040528092919081815260200182805461008990610286565b80156100d65780601f106100ab576101008083540402835291602001916100d6565b820191906000526020600020905b8154815290600101906020018083116100b957829003601f168201915b5050505050905090565b61017882826040516024016100f6929190610200565b6040516020818303038152906040527f4b5c4277000000000000000000000000000000000000000000000000000000007bffffffffffffffffffffffffffffffffffffffffffffffffffffffff19166020820180517bffffffffffffffffffffffffffffffffffffffffffffffffffffffff838183161783525050505061017c565b5050565b60008151905060006a636f6e736f6c652e6c6f679050602083016000808483855afa5050505050565b60006101b082610237565b6101ba8185610242565b93506101ca818560208601610253565b6101d3816102e7565b840191505092915050565b600060208201905081810360008301526101f881846101a5565b905092915050565b6000604082019050818103600083015261021a81856101a5565b9050818103602083015261022e81846101a5565b90509392505050565b600081519050919050565b600082825260208201905092915050565b60005b83811015610271578082015181840152602081019050610256565b83811115610280576000848401525b50505050565b6000600282049050600182168061029e57607f821691505b602082108114156102b2576102b16102b8565b5b50919050565b7f4e487b7100000000000000000000000000000000000000000000000000000000600052602260045260246000fd5b6000601f19601f830116905091905056fea2646970667358221220a9dd4c3cf4845a8f7fb383139b5e65bfae87bfd7d6d360570feb9d7270aae4f164736f6c634300080400334465706c6f79696e6720612053696d706c6573746f7261676520776974682073746f7261673a",
  "linkReferences": {},
  "deployedLinkReferences": {}
}